:100000000C941A030C9442030C9442030C94420384
:100010000C9442030C9442030C9442030C9442034C
:100020000C9442030C9442030C9442030C9442033C
:100030000C9442030C9442030C9442030C9442032C
:100040000C94E7170C9442030C9457180C94311835
:100050000C9442030C9442030C9442030C9442030C
:100060000C9489180C94420300000000003E5B4F82
:100070005B3E3E6B4F6B3E1C3E7C3E1C183C7E3C08
:10008000181C577D571C1C5E7F5E1C00183C180016
:10009000FFE7C3E7FF0018241800FFE7DBE7FF30A6
:1000A000483A060E2629792926407F050507407F14
:1000B00005253F5A3CE73C5A7F3E1C1C08081C1C87
:1000C0003E7F14227F22145F5F005F5F06097F017D
:1000D0007F006689956A606060606094A2FFA29468
:1000E00008047E040810207E201008082A1C080836
:1000F0001C2A08081E101010100C1E0C1E0C303884
:100100003E3830060E3E0E06000000000000005F84
:1001100000000007000700147F147F14242A7F2AA0
:100120001223130864623649562050000807030062
:10013000001C2241000041221C002A1C7F1C2A08AE
:10014000083E080800807030000808080808000011
:1001500060600020100804023E5149453E00427F85
:10016000400072494949462141494D331814127FD4
:100170001027454545393C4A494931412111090774
:100180003649494936464949291E000014000000F5
:1001900040340000000814224114141414140041C7
:1001A00022140802015909063E415D594E7C121184
:1001B000127C7F494949363E414141227F414141BC
:1001C0003E7F494949417F090909013E4141517337
:1001D0007F0808087F00417F41002040413F017FA8
:1001E000081422417F404040407F021C027F7F0470
:1001F00008107F3E4141413E7F090909063E4151B9
:10020000215E7F09192946264949493203017F01A8
:10021000033F4040403F1F2040201F3F4038403FA9
:10022000631408146303047804036159494D4300BF
:100230007F4141410204081020004141417F0402F6
:10024000010204404040404000030708002054548D
:1002500078407F284444383844444428384444286B
:100260007F385454541800087E090218A4A49C78BE
:100270007F0804047800447D40002040403D007F1A
:100280001028440000417F40007C047804787C08FA
:100290000404783844444438FC18242418182424CE
:1002A00018FC7C08040408485454542404043F44B3
:1002B000243C4040207C1C2040201C3C4030403CE2
:1002C00044281028444C9090907C4464544C440042
:1002D00008364100000077000000413608000201A6
:1002E0000204023C2623263C1EA1A161123A404092
:1002F000207A38545455592155557941225454780F
:1003000042215554784020545579400C1E527212A7
:100310003955555559395454545939555454580030
:1003200000457C410002457D420001457C407D1234
:1003300011127DF0282528F07C5455450020545496
:100340007C547C0A097F4932494949323A44444441
:100350003A324A4848303A4141217A3A424020787C
:10036000009DA0A07D3D4242423D3D4040403D3C7D
:1003700024FF2424487E4943662B2FFC2F2BFF09A2
:1003800029F620C0887E0903205454794100004496
:100390007D413048484A32384040227A007A0A0A81
:1003A000727D0D19317D2629292F282629292926F4
:1003B00030484D4020380808080808080808382F39
:1003C00010C8ACBA2F102834FA00007B00000814C3
:1003D0002A142222142A14085500550055AA55AA99
:1003E00055AAFF55FF55FF000000FF00101010FF39
:1003F00000141414FF001010FF00FF1010F010F094
:10040000141414FC001414F700FF0000FF00FF1484
:1004100014F404FC141417101F10101F101F1414D0
:10042000141F00101010F0000000001F101010101A
:100430001F10101010F010000000FF10101010100E
:1004400010101010FF10000000FF140000FF00FF4C
:1004500000001F10170000FC04F4141417101714E8
:1004600014F404F40000FF00F7141414141414140A
:10047000F700F7141414171410101F101F1414147D
:10048000F4141010F010F000001F101F0000001FE7
:1004900014000000FC140000F010F01010FF10FF1A
:1004A000141414FF141010101F00000000F010FFAF
:1004B000FFFFFFFFF0F0F0F0F0FFFFFF0000000093
:1004C00000FFFF0F0F0F0F0F3844443844FC4A4A17
:1004D0004A347E02020606027E027E0263554941CC
:1004E000633844443C04407E201E2006027E020203
:1004F00099A5E7A5991C2A492A1C4C7201724C3017
:100500004A4D4D303048784830BC625A463D3E49ED
:100510004949007E0101017E2A2A2A2A2A44445F91
:10052000444440514A444040444A51400000FF0185
:1005300003E080FF000008086B6B08361236243693
:10054000060F090F060000181800000010100030F8
:1005500040FF0101001F01011E00191D1712003C80
:100560003C3C3C0000000000EF03038002CF03008E
:10057000C130ED0464031281E803850078CB0539AE
:100580002C003402F70120EA020000C00123C1015F
:1005900010C5023E28C701863601483701003A01DE
:1005A00055B1020018B603088227F20100260101A6
:1005B000E00F0F312B0C0E084EF1370710030E0918
:1005C00000E10F000E1403110731C148080F0C3170
:1005D000360F118029800000000000240027002A27
:1005E00000000000080002010000030407000000F2
:1005F0000000000000000000002300260029000188
:1006000002040810204080010204081020010204A6
:1006100008102000000000250028002B000404041E
:10062000040404040402020202020203030303039B
:100630000300A41911241FBECFEFD8E0DEBFCDBF49
:1006400011E0A0E0B1E0E4EFF0E402C005900D920B
:10065000A23DB107D9F723E0A2EDB1E001C01D92A0
:10066000A63AB207E1F713E0CAE1D3E004C021974C
:10067000FE010E946D20C931D107C9F70E94BB1A43
:100680000C9478200C940000833081F028F48130A1
:1006900099F08230A9F008958730A9F08830C9F028
:1006A0008430B1F4809180008F7D03C08091800000
:1006B0008F7780938000089584B58F7784BD0895E7
:1006C00084B58F7DFBCF8091B0008F778093B00091
:1006D00008958091B0008F7DF9CFCF93DF93282FBD
:1006E00030E0F901EF51FA4F8491F901E150FA4FEE
:1006F000D491F901E35EF94FC491CC23A1F08111AB
:100700000E944403EC2FF0E0EE0FFF1FEB50FA4F76
:10071000A591B491EC91ED2381E090E009F480E0A3
:10072000DF91CF91089580E090E0FACF1F93CF93AF
:10073000DF93282F30E0F901EF51FA4F8491F9014E
:10074000E150FA4FD491F901E35EF94FC491CC2303
:10075000A9F0162F81110E944403EC2FF0E0EE0F58
:10076000FF1FED5EF94FA591B4918FB7F894EC910E
:10077000111108C0D095DE23DC938FBFDF91CF919C
:100780001F910895DE2BF8CFCF93DF9390E0FC010B
:10079000E150FA4F2491835E994FFC0184918823A4
:1007A000D1F090E0880F991FFC01E952FA4FA59112
:1007B000B491FC01ED5EF94FC591D49161110EC069
:1007C0009FB7F8948C91E22FE0958E238C9328812B
:1007D000E223E8839FBFDF91CF9108958FB7F8940C
:1007E000EC91E22BEC938FBFF6CF8E3008F08E5059
:1007F0008770806480937C0080917A00806480930D
:100800007A0080917A0086FDFCCF809178009091EB
:10081000790008953FB7F8948091C2029091C30285
:10082000A091C402B091C50226B5A89B05C02F3F78
:1008300019F00196A11DB11D3FBFBA2FA92F982F06
:100840008827BC01CD01620F711D811D911D42E001
:10085000660F771F881F991F4A95D1F708958F92C9
:100860009F92AF92BF92CF92DF92EF92FF924B0195
:100870005C010E940A046B017C010E940A046C194D
:100880007D098E099F09683E734081059105A8F393
:1008900021E0821A9108A108B10888EEC80E83E011
:1008A000D81EE11CF11C81149104A104B10429F7A4
:1008B000FF90EF90DF90CF90BF90AF909F908F9080
:1008C0000895AF92BF92CF92DF92EF92FF920F9373
:1008D0001F93CF93DF936C017B018B01040F151FD6
:1008E000EB015E01AE18BF08C017D10759F069913E
:1008F000D601ED91FC910190F081E02DC6010995A2
:10090000892B79F7C501DF91CF911F910F91FF904E
:10091000EF90DF90CF90BF90AF900895FC01538D82
:10092000448D252F30E0842F90E0821B930B5417C9
:1009300010F0CF96089501970895FC01918D828D56
:10094000981761F0A28DAE0FBF2FB11D5D968C91EF
:10095000928D9F5F9F73928F90E008958FEF9FEF2E
:100960000895FC01918D828D981731F0828DE80FEA
:10097000F11D858D90E008958FEF9FEF0895FC01A4
:10098000918D228D892F90E0805C9F4F821B910971
:100990008F739927089586EC92E00E94BF0421E0AE
:1009A000892B09F420E0822F089580E090E0892BC4
:1009B00029F00E94CB0481110C9400000895FC01E1
:1009C000A48DA80FB92FB11DA35ABF4F2C91848DB0
:1009D00090E001968F739927848FA689B7892C930D
:1009E000A089B1898C91837080648C93938D848D60
:1009F000981306C00288F389E02D80818F7D808363
:100A00000895EF92FF920F931F93CF93DF93EC0122
:100A100081E0888F9B8D8C8D98131AC0E889F989A5
:100A2000808185FF15C09FB7F894EE89FF896083A8
:100A3000E889F98980818370806480839FBF81E029
:100A400090E0DF91CF911F910F91FF90EF9008956B
:100A5000F62E0B8D10E00F5F1F4F0F731127E02E46
:100A60008C8D8E110CC00FB607FCFACFE889F9897E
:100A7000808185FFF5CFCE010E94DF04F1CFEB8DA1
:100A8000EC0FFD2FF11DE35AFF4FF0829FB7F89452
:100A90000B8FEA89FB8980818062CFCFCF93DF9370
:100AA000EC01888D8823B9F0AA89BB89E889F98986
:100AB0008C9185FD03C0808186FD0DC00FB607FCBB
:100AC000F7CF8C9185FFF2CF808185FFEDCFCE01EE
:100AD0000E94DF04E9CFDF91CF9108952091F901C1
:100AE000260F3327331F21323105ECF420911D02EC
:100AF000FC0190E080E0243069F082E00895A0914C
:100B0000F9012191AC0147525E4FA40FB52FB11DE1
:100B10002C930196861798F38091F901680F6093E2
:100B2000F90180E0089581E0089508958FEF9FEF27
:100B300008958FEF9FEF08958091D20190E09195F5
:100B4000819591090895CF93DF93CB01EA01642F3A
:100B50000E946E05CE01DF91CF910895CF93DF9370
:100B60001F92CDB7DEB7698361E0CE0101960E9486
:100B70006E0581E090E00F90DF91CF910895FC0128
:100B8000A5A1B6A18C9192A589238C93A5A1B6A10C
:100B90008C9191A5892B8C9308950F931F93CF93DC
:100BA000DF93EC018B018DA981110DC01EBD0DB429
:100BB00007FEFDCF0EBD0DB407FEFDCFDF91CF9137
:100BC0001F910F9108958130E9F480E1E9A1FAA124
:100BD000908117FF14C02DA1922B9083EBA1FCA153
:100BE00090812FA1922B9083EBA1FCA1908128A54D
:100BF00092239083000F111F815041F7DFCF2EA168
:100C00009223EBCFEF8DF8A11083CE010E94BF0598
:100C1000EF8DF8A10083CE01DF91CF911F910F914D
:100C20000C94BF05FC0185A9811105C06EBD0DB4F2
:100C300007FEFDCF08958130E1F488E0A1A1B2A1C3
:100C40009C9167FF13C025A1922B9C93A3A1B4A1F3
:100C50009C9127A1922B9C93660FA3A1B4A19C9178
:100C600020A592239C93815049F7089526A19223B1
:100C7000ECCFA78DB0A16C93CF010C94BF05CF939F
:100C8000DF93EC01ED8DFE8D80819CA9892380830B
:100C9000CE010E941206ED8DFE8D80819BA9892BCD
:100CA0008083DF91CF910895AF92BF92CF92DF9270
:100CB000EF92FF920F931F93CF93DF93EC015B01B1
:100CC0006A01215031097901E60EF71E0150110920
:100CD000040F151F8091080190910901861797074D
:100CE00039F480910601909107018E159F05A1F0BE
:100CF0006AE2CE010E943F06B501CE010E94CD05F9
:100D0000B701CE010E94CD05B0920901A092080161
:100D1000F0920701E0920601809104019091050193
:100D20008C159D0539F48091020190910301801783
:100D30009107A1F06BE2CE010E943F06B601CE0101
:100D40000E94CD05B801CE010E94CD05D0920501CB
:100D5000C092040110930301009302016CE2CE01E2
:100D6000DF91CF911F910F91FF90EF90DF90CF9087
:100D7000BF90AF900C943F06FC0185A9811104C07F
:100D800091A182A19CBD8DBD08951F93CF93DF9348
:100D9000EC01162FE881F9810284F385E02D099595
:100DA000112371F06DADCE010E943F06E881F981FB
:100DB0000688F789E02DCE01DF91CF911F9109942C
:100DC0006EADF1CFAF92BF92CF92DF92EF92FF92D2
:100DD0000F931F93CF93DF93EC0177FD38C0888585
:100DE0009985681779079CF557FD31C08A859B85E1
:100DF0004817590764F569017A015B01E881F981B7
:100E00000284F385E02DCE010995E881F98102A4E1
:100E1000F3A5E02D01E010E021E030E0A701B501ED
:100E2000CE010995B601CE010E94CD05E881F98178
:100E30000688F789E02DCE01DF91CF911F910F91A8
:100E4000FF90EF90DF90CF90BF90AF900994DF912B
:100E5000CF911F910F91FF90EF90DF90CF90BF90B7
:100E6000AF9008958F929F92AF92BF92CF92DF92F0
:100E7000EF92FF920F931F93CF93DF93EC01490101
:100E80005701E881F98102A4F3A5E02D09959401A9
:100E9000D8010E944F206B017C01C114D104E104F0
:100EA000F10409F490C08DA9811115C081E0C81A20
:100EB000D108E108F1088FEFC816D806E806F80651
:100EC00009F481C0BEBC0DB407FEFDCFAEBC0DB4AD
:100ED00007FEFDCFEBCF813009F045C081E0C81A95
:100EE000D108E108F1088FEFC816D806E806F80621
:100EF00009F469C09B2D88E0E9A1FAA1208197FF40
:100F00002CC03DA1232B2083EBA1FCA120813FA17C
:100F1000232B2083EBA1FCA1208138A52323208350
:100F2000990F815049F79A2D88E0E9A1FAA1208113
:100F300097FF16C03DA1232B2083EBA1FCA12081AC
:100F40003FA1232B2083EBA1FCA1208138A52323E3
:100F50002083990F815049F7C1CF3EA12323D3CFDE
:100F60003EA12323E9CFBA1016C0CC0CDD1CEE1C29
:100F7000FF1CEF8DF8A1B08281E0C81AD108E1080A
:100F8000F1088FEFC816D806E806F806E1F0CE01A2
:100F90000E94BF05F1CF81E0C81AD108E108F1082D
:100FA0008FEFC816D806E806F80669F0EF8DF8A1AD
:100FB000B082CE010E94BF05EF8DF8A1A082CE01C4
:100FC0000E94BF05E8CFDF91CF911F910F91FF9055
:100FD000EF90DF90CF90BF90AF909F908F9008954B
:100FE0008F929F92AF92BF92CF92DF92EF92FF9239
:100FF0000F931F93CF93DF934C01EB016A015901CB
:1010000037FF07C0C9010196C80FD91FB194A19439
:10101000B108F401A085B185CA17DB070CF058C0F0
:1010200017FF07C0C8010196C80ED91E119501957A
:101030001109F40182859385C816D9060CF048C0C1
:10104000FE01EA0DFB1DAF014150510957FD40C0A3
:10105000B601600F711F9B012150310937FD38C067
:10106000D7FF03C05F01D0E0C0E0D7FE03C08B0113
:10107000D12CC12C4A175B071CF05D01AC1ABD0ACC
:10108000281739071CF08C010C191D09D401ED91AA
:10109000FC910284F385E02DC40109959501A60118
:1010A000BE01C4010E943207D401ED91FC91068873
:1010B000F789E02DC401DF91CF911F910F91FF902F
:1010C000EF90DF90CF90BF90AF909F908F9009945A
:1010D000DF91CF911F910F91FF90EF90DF90CF9014
:1010E000BF90AF909F908F900895EF92FF920F93D3
:1010F0001F932115310529F00115110511F00E94EA
:10110000F0071F910F91FF90EF9008958F929F929B
:10111000AF92BF92CF92DF92EF92FF920F931F9305
:10112000CF93DF935C014B016A01E90177FD52C067
:10113000DC0118968D919C91681779070CF04AC0D4
:10114000209709F447C037FF07C0C9010196C80EB0
:10115000D91ED195C195D109F50182859385C8160F
:10116000D906C4F5A6014C0F5D1F9A012150310923
:1011700037FD30C0D7FE03C0EA01D12CC12C28179F
:1011800039071CF0EC01CC19DD09D501ED91FC917A
:101190000284F385E02DC501099578018E0121E0D7
:1011A00030E0A601B401C5010E943207D501ED91DE
:1011B000FC910688F789E02DC501DF91CF911F9141
:1011C0000F91FF90EF90DF90CF90BF90AF909F90E6
:1011D0008F900994DF91CF911F910F91FF90EF9025
:1011E000DF90CF90BF90AF909F908F9008958F9297
:1011F0009F92AF92BF92CF92DF92EF92FF920F93A6
:101200001F93CF93DF935C016B014A01E90157FD06
:1012100052C0DC011A968D919C91481759070CF029
:101220004AC0209709F447C037FF07C0C90101969B
:10123000C80ED91ED195C195D109F501808591853A
:10124000C816D906C4F5A6014C0F5D1F9A0121509E
:10125000310937FD30C0D7FE03C0EA01D12CC12CC3
:10126000281739071CF0EC01CC19DD09D501ED91E7
:10127000FC910284F385E02DC5010995780101E018
:1012800010E09E01A401B601C5010E943207D501FC
:10129000ED91FC910688F789E02DC501DF91CF9192
:1012A0001F910F91FF90EF90DF90CF90BF90AF9084
:1012B0009F908F900994DF91CF911F910F91FF9094
:1012C000EF90DF90CF90BF90AF909F908F90089558
:1012D000EF92FF920F931F93CF93DF9377FD32C06E
:1012E000DC011896ED91FC916E177F075CF52115D6
:1012F000310541F137FF07C0F90131964E0F5F1FED
:10130000319521953109DC011A96ED91FC914E172A
:101310005F07C4F4EA01C20FD31FDE011197B7FDC6
:1013200011C057FF03C09E0150E040E0AE17BF0759
:101330001CF09F01241B350B7801890121E030E06E
:101340000E943207DF91CF911F910F91FF90EF9094
:101350000895EF92FF920F931F93CF93DF9357FD62
:1013600031C0DC011A96ED91FC914E175F0754F5E0
:101370002115310539F137FF07C0F90131966E0F9C
:101380007F1F319521953109DC011896ED91FC9173
:101390006E177F07BCF4EB01C20FD31FDE0111975C
:1013A000B7FD10C077FF03C09E0170E060E0AE178C
:1013B000BF071CF09F01261B370B780101E010E0EE
:1013C0000E943207DF91CF911F910F91FF90EF9014
:1013D00008958F929F92AF92BF92CF92DF92EF9239
:1013E000FF920F931F93CF93DF9347012115310590
:1013F00009F44BC00115110509F447C037FF07C0B8
:10140000F90131966E0F7F1F319521953109DC016D
:101410001896AD90BC906A157B05BCF517FF07C008
:10142000F80131964E0F5F1F119501951109DC01EE
:101430001A96ED91FC914E175F073CF56B01C20EB9
:10144000D31EE6012197D7FD20C07A01E00EF11EE0
:10145000D7011197B7FD19C077FF03C0960170E05F
:1014600060E057FF03C0870150E040E0CA15DB058C
:101470001CF09501261B370BAE17BF071CF08F0120
:10148000041B150B74010E943207DF91CF911F914D
:101490000F91FF90EF90DF90CF90BF90AF909F9013
:1014A0008F900895EF92FF920F931F93CF93DF9346
:1014B000EC0177FD22C08885998568177907ECF4DF
:1014C00057FD1BC08A859B8548175907B4F47901DD
:1014D000E881F98102A4F3A5E02D01E010E021E00C
:1014E00030E0CE010995B701CE01DF91CF911F9178
:1014F0000F91FF90EF900C94CD05DF91CF911F914C
:101500000F91FF90EF9008952F923F924F925F922C
:101510006F927F928F929F92AF92BF92CF92DF9203
:10152000EF92FF920F931F93CF93DF937C016B0198
:10153000EA0181E090E05C01A41AB50A66247724F0
:10154000641A750A660C771C10E000E08824839406
:10155000912C822F8470582E822F8270482E822FD9
:101560008870382E2170222E0C171D070CF079C0C0
:10157000B7FC06C0219782E0680E711CA60CB71C50
:101580000F5F1F4F82E0880E911CA80CB91C5520DC
:10159000C1F02FEF3FEFAE014C0D5D1DB701600FA5
:1015A000711F83E693E00E94520A2FEF3FEFA601DE
:1015B000400F511FBE016E0D7F1D83E693E00E9418
:1015C000520A4420C1F02FEF3FEFA6014C1B5D0BE8
:1015D000B701600F711F83E693E00E94520A2FEF5C
:1015E0003FEFA601401B510BBE016E0D7F1D83E630
:1015F00093E00E94520A3320C1F02FEF3FEFA60183
:10160000400F511FB7016C1B7D0B83E693E00E94D6
:10161000520A2FEF3FEFAE014C0D5D1DB701601B6D
:10162000710B83E693E00E94520A222009F49CCFBA
:101630002FEF3FEFA601401B510BB7016C1B7D0B39
:1016400083E693E00E94520A2FEF3FEFA6014C1B66
:101650005D0BB701601B710B83E693E00E94520A99
:1016600083CFDF91CF911F910F91FF90EF90DF908B
:10167000CF90BF90AF909F908F907F906F905F9032
:101680004F903F902F900895CF93DF93EC010E94ED
:10169000BC068FA987FD06C0EB8DFC8D80819AA9C1
:1016A00089238083DF91CF9108950895AF92BF92EF
:1016B000CF92DF92EF92FF920F931F93CF93DF931E
:1016C000EC01E62E8A01A22E0E94BC068FA987FD9E
:1016D00006C0EB8DFC8D80819AA989238083ED8DD6
:1016E000FE8D80819CA9892380836E2DCE010E946E
:1016F0001206ED8DFE8D80819BA9892B8083D12CD4
:10170000C12CB12CCA14DB04E4F48DA97801823019
:1017100079F488A9882361F0F801619171917F01C2
:10172000CE010E94CD05FFEFCF1ADF0A8701EACF75
:10173000FFEFEF1AFF0AF8016491CE010E94120632
:10174000F2CF8FA987FD06C0EB8DFC8D808199A912
:10175000892B8083DF91CF911F910F91FF90EF90A4
:10176000DF90CF90BF90AF900895611106C060E206
:1017700020E050E040E00C94560B61E2F9CF0F936B
:101780001F93CF93DF931F92CDB7DEB78C016370A9
:10179000DC0156966C935697623009F468C063304A
:1017A00009F46AC0613009F456C088E4898380EF87
:1017B00090E019969C938E93189780E491E01B9685
:1017C0009C938E931A97C8010E94BC06D801D796A5
:1017D0008C91D79787FD09C05B96ED91FC915C9742
:1017E0008081D2969C9189238083D8015D96ED916A
:1017F000FC915E978081D4969C918923808366E3D7
:10180000C8010E941206D8015D96ED91FC915E9789
:101810008081D3969C91D397892B8083D5968C9188
:10182000823061F16981C8010E941206D801D79601
:101830008C91D79787FD09C05B96ED91FC915C97E1
:101840008081D1969C91892B80830F90DF91CF91DD
:101850001F910F91089588E2898380E491E0F80157
:101860009187808780EF90E093878287ACCF88E86C
:10187000898380EF90E09DCF88EEEECFF80180A9BC
:10188000882381F269817A81C8010E94CD05CECF7B
:10189000FC0187A987FD06C0A38DB48D9C9181A909
:1018A000892B8C9308950895FC016370668B848165
:1018B000958126813781613039F0633029F0918735
:1018C000808733872287089531872087938782878F
:1018D00008952F923F924F925F926F927F928F92D4
:1018E0009F92AF92BF92CF92DF92EF92FF920F93AF
:1018F0001F93CF93DF93CDB7DEB76A970FB6F894F7
:10190000DEBF0FBECDBF9A8F898F7A8369834A016C
:10191000D22E18870F833701BC2CDC0159962D91EC
:101920003C915A972115310509F015C118968D91F2
:101930009C911997681779070CF0D7C11A968D9169
:101940009C91481759070CF0D0C14C2C512CB6E093
:10195000CB9E600D711D11247C876B8716161706B0
:101960000CF0C3C1EA2DF0E0FA87E98793E0EE0FAF
:10197000FF1F9A95E1F7F88BEF87CF01840F951F32
:10198000181619060CF0B1C1A98DBA8D58968C9114
:10199000811104C0BFEABD1508F4D394A98DBA8D96
:1019A000ED91FC9111970284F385E02DCD0109950D
:1019B000B5E0DB9EC0011124E981FA81FC83EB8351
:1019C000312C212C9C0128593F4F388F2F8B4A2DC9
:1019D00050E05E8B4D8BEF89F88DE20DF31D449145
:1019E0009E828D82D12CC12C69817A81620D731DFA
:1019F0007A8B698B842F90E09C8B8B8BE98DFA8D91
:101A0000A081B18140FF82C0F1E0BF126FC0AF1270
:101A10006DC01C96ED91FC912F813885A4014C0D71
:101A20005D1D69897A89898D9A8D0995EB89FC8973
:101A3000F595E7954E2F5FEFC51AD50A6D817E812A
:101A40008D899E89680F791F7E836D8398E0C91602
:101A5000D10481F6AFEF2A1A3A0AEB81FC81E40D3A
:101A6000F51DFC83EB83F5E02F16310409F0B3CFAD
:101A70002F81388526153705B9F0A98DBA8DED91DE
:101A8000FC91B1E0BB1257C0AB1255C069817A819D
:101A90006B5F7F4F0088F189E02D830128E030E003
:101AA000A401898D9A8D0995A98DBA8DED91FC912E
:101AB00011970688F789E02DCD016A960FB6F89444
:101AC000DEBF0FBECDBFDF91CF911F910F91FF9071
:101AD000EF90DF90CF90BF90AF909F908F907F90CE
:101AE0006F905F904F903F902F9009941E96ED91CC
:101AF000FC91EF80F88409851A8592014D815E8101
:101B00006B817C81898D9A8D099590CF2F81388545
:101B10002615370509F48ACF31E0B31207C0A312A6
:101B200005C01C96ED91FC91930178CF1E96ED9126
:101B3000FC917301E0CF6B857C856419750906847F
:101B4000F785E02D73010F8518899201A401898D15
:101B50009A8D0995A9CFF9013496949132974591C0
:101B60005491D91AB7E0DB9E400D511D1124F901A3
:101B7000259134913C8B2B8BFA0125903490FA01FE
:101B80003296749031963491398B329664903196B6
:101B9000449041E04C1518F04A1508F07FC0662DBE
:101BA000062C000C770B7C836B83842D042C000C9B
:101BB000990B9E838D83A98DBA8DED91FC91119720
:101BC0000284F385E02DCD010995512CD12CC12C37
:101BD000EA2DF0E0FA87E9872B2D30E03C872B8750
:101BE000A401440D511D47FC5A95588F4F8B6981B4
:101BF0007A81660D711D67FC7A957E876D8779897C
:101C0000C71608F051CF2C2D30E04D815E81420F78
:101C1000531FA985BA854A9FC0014B9F900D5A9FBB
:101C2000900D1124FC01E80DF91DF88BEF87852D2F
:101C3000612C4F89588D420F531F5E8B4D8B67145B
:101C400008F050C044244394480E877041F4C10109
:101C50000196EB89FC89E20DF31DD4901C01D7FE9F
:101C600019C0A98DBA8DED91FC91662D70E0B1E09F
:101C7000BB1219C0AB1217C02D853E85620F731FB2
:101C80000484F585E02D2F8138854D895E89898D05
:101C90009A8D0995DD0C6394842DD1CF1E821D820F
:101CA0001C821B8288CF4B815C81640F751FAB85C2
:101CB000BC856A9FC0016B9F900D7A9F900D112487
:101CC00069817A81680F791F0684F785E02DEF809E
:101CD000F88409851A859D014F855889898D9A8DCB
:101CE0000995D8CF570CC3948ACF6A960FB6F8944B
:101CF000DEBF0FBECDBFDF91CF911F910F91FF903F
:101D0000EF90DF90CF90BF90AF909F908F907F909B
:101D10006F905F904F903F902F9008958F929F9279
:101D2000AF92CF92EF92FF920F931F93CF93DF93D7
:101D3000EC01262F898D9A8D009709F051C06A30E9
:101D4000D1F41D861C868D8948E0849F9001112462
:101D50008E859F85820F931F9F878E8781E090E0FD
:101D6000DF91CF911F910F91FF90EF90CF90AF90A7
:101D70009F908F9008956D3089F3CC88AD888F89BE
:101D80008823C1F08C859D8536E0C39E800D911D12
:101D90001124488559854817590764F44E855F8595
:101DA0001D861C8638E0A39EC0011124840F951F58
:101DB0009F878E87EA88FB88088919894E855F8509
:101DC0006C857D85CE010E94690C2C898C859D8552
:101DD00046E0249F800D911D11249D878C87BECFE6
:101DE0006A3069F41D861C86FC013896E4912D89C1
:101DF0008E859F85E29F800D911D1124ADCF6D30A2
:101E000009F4ACCFFC0134963491631708F4A6CFE3
:101E10003296E491E61708F4A1CFFC013296859042
:101E20009490462F431B342F47E0349F800C911C25
:101E30001124F401329634913196E4913323A9F1BF
:101E4000EE2399F1CC88F4013596E491AD884F8961
:101E5000442301F10E2E000CFF0BE30FF11DCE9E6B
:101E6000A001CF9E500D11246C857D85460F571F14
:101E700068857985641775076CF44E855F851D86C6
:101E80001C86FC013896E491AE9E400D511D112434
:101E90005F874E87EA88FB88088919894E855F85A8
:101EA0006C857D85CE010E94690CF4013496E49125
:101EB0002C898C859D85E29F800D911D11248DCFED
:101EC0006F927F928F929F92AF92BF92CF92DF924A
:101ED000EF92FF920F931F93CF93DF93EC016B016F
:101EE0005A0139014801E881F9810284F385E02D26
:101EF0000995E881F9810288F389E02D8701930132
:101F0000A501B601CE010995A501480D591D415005
:101F10005109E881F9810288F389E02D9301B60126
:101F2000CE010995E881F9810088F189E02D9401BD
:101F3000A501B601CE010995C60CD71CB6016150AA
:101F40007109E881F9810088F189E02D9401A501EA
:101F5000CE010995E881F9810688F789E02DCE0147
:101F6000DF91CF911F910F91FF90EF90DF90CF9075
:101F7000BF90AF909F908F907F906F9009946F92D9
:101F80007F928F929F92AF92BF92CF92DF92EF9209
:101F9000FF920F931F93CF93DF935C01EB016A01D4
:101FA000490138018701DC01ED91FC91621773074B
:101FB00019F5641675062CF0962D872D3A01C92E59
:101FC000D82E9601261937092F5F3F4F048CF58DC7
:101FD000E02DA301BE01C5010995DF91CF911F91AD
:101FE0000F91FF90EF90DF90CF90BF90AF909F90B8
:101FF0008F907F906F9008954615570591F426179E
:10200000370724F0892D4B01C22FD82F9E012819A4
:1020100039092F5F3F4F068CF78DE02DA601B401E3
:10202000DACF0284F385E02D0995D501ED91FC917D
:102030000488F589E02D83019401A601BE01C50144
:102040000995D501ED91FC910688F789E02DC50130
:10205000DF91CF911F910F91FF90EF90DF90CF9084
:10206000BF90AF909F908F907F906F900994EF9268
:10207000FF920F931F93DC011A960D911C911B97F1
:1020800018962D913C911997ED91FC9100A0F1A12A
:10209000E02D7B0150E040E070E060E009951F9189
:1020A0000F91FF90EF9008954F925F926F927F9201
:1020B0008F929F92AF92BF92CF92DF92EF92FF9258
:1020C0000F931F93CF93DF936C012B015A013901BA
:1020D0004801DC01ED91FC910284F385E02D099526
:1020E000E201640C751CD601ED91FC91C615D70573
:1020F0005CF40088F189E02D87019401A501BE01FF
:10210000C60109952196EFCF0688F789E02DC60113
:10211000DF91CF911F910F91FF90EF90DF90CF90C3
:10212000BF90AF909F908F907F906F905F904F90F7
:1021300009948F929F92AF92BF92CF92DF92EF92CB
:10214000FF920F931F93CF93DF93EC015B014A0142
:102150006901E881F9810284F385E02D09959501F3
:102160002C0D3D1D21503109E881F9810488F58944
:10217000E02D78018401A401B501CE010995E88123
:10218000F9810688F789E02DCE01DF91CF911F916B
:102190000F91FF90EF90DF90CF90BF90AF909F9006
:1021A0008F9009948F929F92AF92BF92CF92DF92BD
:1021B000EF92FF920F931F93CF93DF93EC015B019C
:1021C0004A0169017801E881F9810284F385E02DF3
:1021D0000995C80CD91C860101501109E881F981C3
:1021E0000488F589E02D9501A401B501CE0109957A
:1021F000E881F9810688F789E02DCE01DF91CF9142
:102200001F910F91FF90EF90DF90CF90BF90AF9014
:102210009F908F900994EF92FF920F931F93DC0190
:10222000ED91FC9100A0F1A1E02D09951F910F9176
:10223000FF90EF9008950F931F93DC01ED91FC91B7
:10224000068CF78DE02D09951F910F9108950F933E
:102250001F93DC01ED91FC91048CF58DE02D099527
:102260001F910F910895DC01ED91FC910084F1859F
:10227000E02D09942F923F924F925F926F927F923E
:102280008F929F92AF92BF92CF92DF92EF92FF9286
:102290000F931F93CF93DF9300D000D000D0CDB722
:1022A000DEB73C016A013E832D83FC82EB8258013C
:1022B000A41AB50AB7FE03C0B194A194B1088D80E9
:1022C0009E80861A970A97FE03C091948194910884
:1022D0008A149B045CF0902F812F0D811E819D83B9
:1022E0008E839C2D8D2D6B01692F782F0C151D056C
:1022F0005CF09D818E817E836D83692F782F902F76
:10230000812F8601C92ED82E1601201A310A2B01E1
:102310002D813E81421A530A57FE03C051944194C5
:102320005108710137FE03C03FEFE31AF30AF59439
:10233000E7948D819E81861797075CF5A1E0B0E058
:10234000BA83A983C016D1064CF1D301ED91FC915B
:102350000484F585E02D2B813C81A8016D817E816F
:102360008A149B041CF04D815E81B801C30109955C
:10237000E418F508F7FE0AC02D813E8189819A8113
:10238000280F391F3E832D83E20CF31C0F5F1F4F74
:10239000D9CF2FEF3FEF3A832983D4CF26960FB6BC
:1023A000F894DEBF0FBECDBFDF91CF911F910F918B
:1023B000FF90EF90DF90CF90BF90AF909F908F9065
:1023C0007F906F905F904F903F902F900895089569
:1023D00090E080E0089520918F02309190028091EA
:1023E000790290917A028217930720F481E080931A
:1023F000740208952817390718F41092740208958A
:1024000082E0F5CF0E947320FB0101900020E9F7E4
:102410003197AF01461B570BDC01ED91FC91028017
:10242000F381E02D09948F929F92AF92BF92EF9229
:10243000FF920F931F93CF93DF93CDB7DEB7A19792
:102440000FB6F894DEBF0FBECDBF7C01FA01CB0101
:1024500019A2223008F42AE08E010F5D1F4F822E50
:10246000912CB12CA12CBF01A50194010E942D201B
:10247000F901CA016A300CF5605DD8016E938D01D7
:10248000232B242B252B79F790E080E0109721F067
:10249000BD01C7010E940412A1960FB6F894DEBFD9
:1024A0000FBECDBFDF91CF911F910F91FF90EF90A5
:1024B000BF90AF909F908F900895695CDECFCF92D0
:1024C000DF92EF92FF92CF93DF936C01990FEE08AA
:1024D000FF08F7FE1BC06DE286EC92E00E9401054A
:1024E000EC0144275527BA014C195D096E097F0993
:1024F0002AE086EC92E00E9413128C0F9D1FDF9160
:10250000CF91FF90EF90DF90CF9008952AE0B70130
:10251000A60186EC92E0DF91CF91FF90EF90DF90E3
:10252000CF900C9413122F923F924F925F926F9222
:102530007F928F929F92AF92BF92CF92DF92EF9253
:10254000FF921F93CF93DF93EC016A017B01722E00
:10255000AB019601CB01B6010E94132062E671E047
:10256000811126C046015701E894B7F82FEF3FEFDD
:102570004FE75FE7C501B4010E94132081110CC031
:102580002FEF3FEF4FE75FE7C501B4010E94FC1D4D
:1025900066E671E0181664F02FEF3FEF4FE75FE457
:1025A000C701B6010E945B1F1816B4F46AE671E019
:1025B000CE01DF91CF911F91FF90EF90DF90CF90F0
:1025C000BF90AF909F908F907F906F905F904F9053
:1025D0003F902F900C9404122FEF3FEF4FE75FECEA
:1025E000C701B6010E94FC1D87FDE0CF20E030E06E
:1025F000A901C701B6010E94FC1D312C212C87FFC7
:102600000DC0E881F9810190F081E02D6DE2CE01ED
:1026100009951C01F7FAF094F7F8F09410E060E0E7
:1026200070E080E09FE3711641F020E030E040E28E
:1026300051E40E94011E1F5FF6CFA70196010E9480
:10264000901D2B013C010E947A1E4B015C012AE087
:10265000BC01A401CE010E9413127C01E20CF31C08
:102660001123E1F1C501B4010E94A91E9B01AC0137
:10267000C301B2010E948F1D4B015C01E881F98109
:102680000190F081E02D6EE2CE010995E80EF91E71
:10269000115020F120E030E040E251E4C501B401E6
:1026A0000E94601F2B013C010E947A1E4B01B12C3D
:1026B000A12C2AE0B501A401CE010E941312E80E5C
:1026C000F91EC501B4010E94A91E9B01AC01C30102
:1026D000B2010E948F1D4B015C01DACFC701DF916F
:1026E000CF911F91FF90EF90DF90CF90BF90AF9070
:1026F0009F908F907F906F905F904F903F902F9022
:1027000008950F931F93CF93DF93EC010E9404125F
:102710008C016EE671E0CE010E940412800F911FC1
:10272000DF91CF911F910F9108956115710511F0FF
:102730000C94041290E080E00895CF92DF92EF9223
:10274000FF920F931F93CF93DF9382E00E946D035C
:10275000019709F052C08091BB029091BC02019791
:1027600009F054C029EAE22E22E0F22E36E5C32E0B
:1027700032E0D32E06E412E0D0E0C0E0F701219170
:1027800031917F01F601819191916F012196281776
:10279000390771F161E771E086EC92E00E949513D0
:1027A000CE010E945F1263E771E086EC92E00E9426
:1027B0009513F801408151816281738122E086EC9A
:1027C00092E00E94931263E771E086EC92E00E942F
:1027D00095130E940A04AB01BC012AE086EC92E04A
:1027E0000E94131260E771E086EC92E00E94811370
:1027F0000C5F1F4FC430D10509F6DF91CF911F91B7
:102800000F91FF90EF90DF90CF90089583EBC82E4B
:1028100082E0D82E91EAE92E92E0F92E01E912E049
:10282000D0E0C0E0F601219131916F01F701819173
:1028300091917F0121962817390771F165E771E0C1
:1028400086EC92E00E949513CE010E945F1263E72E
:1028500071E086EC92E00E949513F801408151816D
:102860006281738122E086EC92E00E94931263E71A
:1028700071E086EC92E00E9495130E940A04AB017D
:10288000BC012AE086EC92E00E94131260E771E03E
:1028900086EC92E00E9481130C5F1F4FC430D1057B
:1028A00009F6ABCF3F924F925F926F927F928F92D9
:1028B0009F92AF92BF92CF92DF92EF92FF920F93CF
:1028C0001F93CF93DF93C1E0C0937703C093780346
:1028D0008FEF9FEF9093760380937503909374032B
:1028E000809373038AE590E09093700380936F0365
:1028F0008EE190E0909372038093710369E771E039
:1029000083E693E00E948113C0937703C09378031A
:1029100082E390E09093700380936F038CE390E0E8
:10292000909372038093710361E871E083E693E012
:102930000E94811383E08093770380937803C09093
:102940006B03D0906C0336018EE1681A7108E0EADF
:102950006E16710444F4E30177FC2196D595C79572
:10296000CA30D10514F0CAE0D0E083E693E00E94BB
:10297000440B4E01880C991C681879085E01FFE031
:10298000AF0EB11C0FEF1FEF930149E650E0B50108
:1029900083E693E00E94A909930148E051E0B50164
:1029A00083E693E00E94A90980EA90E03C01681860
:1029B00079084E0189E6880E911C9301A4016FE00D
:1029C00070E083E693E00E946809B60160517109E6
:1029D0009301A40183E693E00E94680921E0AE011F
:1029E000B401C5010E94840A86010C1B1D0B005115
:1029F000110922E0AE01B401C8010E94840A88E0F6
:102A000091E06C01CC1ADD0A24E0AE01B601C801E8
:102A10000E94840A28E0AE01B601C5010E94840A22
:102A200083E693E00E94480C28E1622E21E0722E9A
:102A300030E1832E31E0932E46E4A42E42E0B42E02
:102A400051E9C52E52E0D52EC8E7D0E064E1462E0C
:102A5000512C73E0372E5092700340926F03D09345
:102A60007203C09371033092770330927803F301BD
:102A7000819191913F019093760380937503909398
:102A8000740380937303F401619171914F0183E6A4
:102A900093E00E9495138091BB029091BC02F12CAF
:102AA000E12C0EE110E022E830E0AE016AE570E0D2
:102AB000892B09F48DC083E693E00E94F007F501AD
:102AC000408151816281738122E083E693E00E941C
:102AD000931269E971E083E693E00E9481136E9698
:102AE000F4E0AF0EB11C84E0C80ED11CC03FD1058C
:102AF00009F0B1CF82E0809377038093780383EC71
:102B000090E09093700380936F0385EF90E0909333
:102B10007203809371038FEF9FEF909376038093FE
:102B2000750390937403809373038091BB0290911B
:102B3000BC0220910001309101018217930791F0AE
:102B40009093010180930001F12CE12C00E110E051
:102B500024E130E045EF50E063EC70E083E693E081
:102B60000E94F007E0910001F0910101EE0FFF1FBC
:102B7000E45FFE4F6081718183E693E00E949513CC
:102B800081E080937703809378038EE190E09093C7
:102B9000700380936F0388E191E0909372038093B8
:102BA00071036BE971E083E693E0DF91CF911F91B0
:102BB0000F91FF90EF90DF90CF90BF90AF909F90DC
:102BC0008F907F906F905F904F903F900C94811307
:102BD00083E693E00E94F007F60172CFCF92DF9276
:102BE000EF92FF920F931F93CF93DF93EC016A0153
:102BF0007B01C114D104E104F10431F4C12C42E1A0
:102C0000D42E4AE7E42EF12C8FA987FD07C061E09E
:102C10000E94C40361E08FA90E94960361E088AD21
:102C20000E94C40361E088AD0E9496038DA98111C2
:102C3000A3C040E052E16AE770E0C416D506E6069C
:102C4000F70640F476956795579547958F5F8630E0
:102C5000A1F787E0982F906A969599A38095817047
:102C60008AA31BA21CA21DA21EA21FB7F8948091CA
:102C70004302811127C0E7E2F6E08491E9E0F6E043
:102C80009491E82FF0E0EE0FFF1FE952FA4FA59163
:102C9000B491EC91E92321F461E08AE00E9496036B
:102CA00061E08AE00E94C4038CB580618CBD8CB564
:102CB00080648CBD61E08DE00E94C40361E08BE024
:102CC0000E94C403809143028F5F809343021FBF21
:102CD0008EA987FD21C061E00E94C40361E08EA936
:102CE0000E94960364E670E080E090E00E942F046A
:102CF00060E08EA90E94960364E670E080E090E0B8
:102D00000E942F0461E08EA90E94960368EC70E097
:102D100080E090E00E942F048EA987FF0DC020E084
:102D200050E040E061E0CE010E94560B66E970E0A1
:102D300080E090E00E942F0408E615E0C8010196AB
:102D4000F8016491662309F463C00E5F1F4FFC0114
:102D5000F490EF2CE894E7F82E2DA801CE010E9404
:102D6000560B0E0D111DF7FEE9CF66E970E080E00D
:102D700090E00E942F04E2CF0DE116E0F12C8130AB
:102D8000B9F461E08AA50E94C40360E08AA50E94AC
:102D9000960361E08CA50E94C40360E08CA50E94AC
:102DA00096038BA587FD94CF60E00E94C40390CF6B
:102DB000F8018491E82FF0E0EE0FFF1FED5EF94F70
:102DC000859194912F8D38A12817390741F461E03E
:102DD0008F2D0E94C40360E08F2D0E949603F39410
:102DE0000F5F1F4FF4E1FF12E3CF61E08EA50E9459
:102DF000C40361E08EA50E9496038FA587FD68CF6E
:102E000061E00E94C40361E08FA50E94960360CF39
:102E100080EF90E09987888780E491E09B878A879C
:102E2000DF91CF911F910F91FF90EF90DF90CF90A6
:102E300008951F93CF93DF9385ED8093BC0080911D
:102E4000D5019091D601A091D701B091D8010796F4
:102E5000A11DB11D23E0B695A795979587952A9555
:102E6000D1F72091BC0024FD03C010921D0252C076
:102E70004091D5015091D6016091D7017091D80150
:102E8000452B462B472B69F30097A105B10541F06F
:102E90002AE22A95F1F700C00197A109B109E1CF13
:102EA0008091D401C1E0C093D301882399F1D091DE
:102EB000B8001091BA008091BC008A7B8093BC005E
:102EC00060E082E10E94960360E083E10E94960345
:102ED00010921D02C0931F0210921E0261E082E157
:102EE0000E94960361E083E10E9496038091B900FD
:102EF0008E7F8093B9008091B9008D7F8093B90057
:102F000088E48093B80085E48093BC001093BA00F5
:102F1000D093B800DF91CF911F9108958F929F9227
:102F2000AF92BF92CF92DF92EF92FF9260918F02A9
:102F30007091900290E080E00E94A91E2CE030E3A6
:102F400040E45DE30E94601F20E030E040EC51E48B
:102F50000E948F1D6B017C0160918B0270918C022D
:102F60008091750290917602681B790B072E000CF8
:102F7000880B990B0E94AB1E4B015C01A7019601C7
:102F8000C701B6010E94601F9B01AC01C501B401DD
:102F90000E94601F9B01AC0160915E0270915F0214
:102FA00080916002909161020E94901D60935E0288
:102FB00070935F028093600290936102FF90EF90A4
:102FC000DF90CF90BF90AF909F908F9008951F9209
:102FD0000F920FB60F9211242F933F938F939F93CD
:102FE000AF93BF938091BE029091BF02A091C002A7
:102FF000B091C1023091BD0223E0230F2D3758F567
:103000000196A11DB11D2093BD028093BE02909335
:10301000BF02A093C002B093C1028091C2029091FE
:10302000C302A091C402B091C5020196A11DB11DB9
:103030008093C2029093C302A093C402B093C502CE
:10304000BF91AF919F918F913F912F910F900FBEA4
:103050000F901F90189526E8230F0296A11DB11D11
:10306000D2CF1F920F920FB60F9211242F933F933E
:103070004F935F936F937F938F939F93AF93BF9380
:10308000EF93FF9386EC92E00E94DF04FF91EF91B3
:10309000BF91AF919F918F917F916F915F914F9170
:1030A0003F912F910F900FBE0F901F9018951F9278
:1030B0000F920FB60F9211242F938F939F93EF933C
:1030C000FF93E091D602F091D7028081E091DC027B
:1030D000F091DD0282FD1BC090818091DF028F5F45
:1030E0008F732091E002821741F0E091DF02F0E05F
:1030F000EA53FD4F958F8093DF02FF91EF919F91EF
:103100008F912F910F900FBE0F901F901895808177
:10311000F4CF1F920F920FB60F9211242F933F936B
:103120004F935F936F937F938F939F93AF93BF93CF
:10313000EF93FF938091B900887F803609F44AC0ED
:10314000F0F5883209F4A5C018F5803109F499C06A
:10315000B8F4882309F4F5C0883009F492C0FF91CF
:10316000EF91BF91AF919F918F917F916F915F91FF
:103170004F913F912F910F900FBE0F901F90189578
:10318000883109F486C0803251F780931C0214C044
:10319000803409F49BC040F48033B9F38833F9F6E6
:1031A00080931C0285ECAEC0803509F483C088355D
:1031B00009F494C0883499F60E941917D0CF883941
:1031C00009F48AC038F5883729F050F4883611F0B0
:1031D000803729F683E080931D0210921B0255C0B0
:1031E000883809F479C0803919F0803809F0B7CFF0
:1031F00080911B02803208F06FC0E0911B0281E0D9
:103200008E0F80931B028091BB00F0E0E550FE4FD3
:1032100080833BC0803B39F0D0F4803A09F477C01A
:10322000883A09F09CCF84E080931D021092FA0145
:103230001092F901F0E0E0E009958091F901811127
:103240000FC081E08093F9011092D90109C0803C40
:1032500009F4A8CF883C09F4A5CF883B09F07FCFBB
:10326000E091FA0181E08E0F8093FA01F0E0E752DD
:10327000FE4F80818093BB009091FA018091F9010B
:1032800029C0809142028093BB0085EC8093BC00F2
:1032900066CF9091410280914002981758F5E091D5
:1032A000410281E08E0F80934102F0E0E05EFD4F2D
:1032B0008081E9CFE091410281E08E0F809341024D
:1032C0008091BB00F0E0E05EFD4F80839091410271
:1032D000809140029817C8F285E8D8CFE09141026A
:1032E00081E08E0F809341028091BB00F0E0E05EB0
:1032F000FD4F808380911F0281115ECF81E080931A
:103300001E0284EA8093BC0010921D0228CF85EC37
:103310008093BC0010921D0280911B02803230F419
:10332000E0911B02F0E0E550FE4F108260911B021D
:1033300070E08BEF91E0F0E0E0E0099510921B0265
:103340000ECF10921C0238CFE6ECF2E0138212820C
:1033500088EE93E0A0E0B0E084839583A683B783F2
:1033600084E291E09183808385EC90E09587848767
:1033700084EC90E09787868780EC90E0918B808B3F
:1033800081EC90E0938B828B82EC90E0958B848B28
:1033900086EC90E0978B868B118E128E138E148E96
:1033A000A3E6B3E013961C921E92129720EF30E032
:1033B00015963C932E93149780E491E017969C9376
:1033C0008E93169719963C932E9318971B969C9361
:1033D0008E931A9756961C9256971D961C921E9283
:1033E0001C971F961C921E921E9781E055968C93F7
:1033F000559754968C9354972FEF3FEF53963C93E9
:103400002E93529751963C932E93509757968C93A8
:10341000579758961C9258975A961C921E925997F5
:10342000D5968C93D59788E0D6968C93D6978AE0DC
:10343000D7968C93D79789E0D8968C93D897DA96BD
:103440001C921E92D997DC961C921E92DB97DD96F9
:103450001C92DD97DE961C92DE971092A2031092CA
:10346000A3031092A4031092A5038DE09C968C9365
:103470009C978BE09A968C939A978CE09B968C9372
:103480009B97E6E2F6E0E491F0E0EE0FFF1FED5EC1
:10349000F94F859194915E969C938E935D97E8E0A9
:1034A000F6E09491D3969C93D397EAE2F6E0E49108
:1034B000F0E0EE0FFF1FED5EF94F259134919496E9
:1034C0003C932E939397ECE0F6E0849197968C933F
:1034D0009797E8E2F6E0E491F0E0EE0FFF1FED5E73
:1034E000F94F2591349192963C932E939197EAE06F
:1034F000F6E0249195962C939597E7E2F6E0E49117
:10350000F0E0EE0FFF1FED5EF94F459154915C9690
:103510005C934E935B97E9E0F6E03491D1963C934F
:10352000D197E9E2F6E0E491F0E0EE0FFF1FEB50F7
:10353000FA4F4591549190965C934E935F97EBE0D0
:10354000F6E0E4919996EC939997E32FE095D29663
:10355000EC93D2979095D4969C93D4978095989617
:103560008C939897209596962C93969786E391E066
:103570008D939C930895789484B5826084BD84B5BE
:10358000816084BD85B5826085BD85B5816085BD5E
:1035900080916E00816080936E0010928100809116
:1035A000810082608093810080918100816080939E
:1035B0008100809180008160809380008091B100C3
:1035C00084608093B1008091B00081608093B000EE
:1035D00080917A00846080937A0080917A00826082
:1035E00080937A0080917A00816080937A00809144
:1035F0007A00806880937A001092C10060E087E0D2
:103600000E94C40361E086E00E94C40361E085E09B
:103610000E94C40361E084E00E94C40361E083E08F
:103620000E94C40360E082E00E94C40340E050E0D6
:10363000BA0183E693E00E94EE15F0ED2F2EF7E03D
:103640003F2EDD24D39487E00E946D03EC0190931C
:10365000BC028093BB0282E00E946D039C018091BA
:103660004402909145022130310509F0BDC0892BFB
:1036700009F059C0E091D602F091D70282E0808330
:10368000E091D202F091D3021082E091D402F09145
:10369000D5024FEC40831092DE02E091DA02F09105
:1036A000DB0256E05083E091D802F091D90280818C
:1036B00080618083E091D802F091D9029081986076
:1036C0009083E091D802F091D90290819068908324
:1036D000E091D802F091D90290819F7D9083309340
:1036E0004502209344021092B4021092B302109249
:1036F000AA021092A9021092B6021092B50210927C
:10370000AC021092AB021092B8021092B702109263
:10371000AE021092AD021092BA021092B90210924B
:10372000B0021092AF02219709F48AC01092AA0247
:103730001092A9021092AC021092AB021092AE024B
:103740001092AD021092B0021092AF021092B2022B
:1037500003EB12E071EAA72E72E0B72EE1E9EE2E3C
:10376000E2E0FE2EE801C12C89919991F501819347
:1037700091935F018C2D0E94F503FE013297918396
:103780008083BC01990F880B990B0E94AB1E2CE023
:1037900030E340E45DE30E94601F20E030E040EC55
:1037A00051E40E948F1DF70161937193819391936E
:1037B0007F01C394F4E0CF12D7CF0E949D13C3E0E2
:1037C000F801819191918F018555910961E08735CB
:1037D000934008F460E08C2F0E949603CF5FC730BF
:1037E00079F70E94521493C0019709F09CCF86ECA0
:1037F00092E00E944E05E091D802F091D9028081BA
:103800008F7E8083E091D802F091D9028081877FFA
:103810008083E091D802F091D90280818F778083F4
:10382000E091D802F091D90280818F7D80838091D0
:10383000E0028093DF02109245021092440273CF9F
:103840001092B4021092B3021092B6021092B50216
:103850001092B8021092B7021092BA021092B902F6
:103860008091B202813009F05FC00E949D130BE786
:1038700012E0C3E8D2E063E0F62EF8018191919165
:103880008F018A3A934030F48881998160E08535D0
:10389000910508F461E08F2D0E949603F39422961F
:1038A00027E0F212EACF0E94521410925E021092A8
:1038B0005F021092600210926102D0920B01D092CE
:1038C0000A01109272021092B2021092B10280911B
:1038D0005602909157029093AA028093A902809178
:1038E0005802909159029093AC028093AB02809160
:1038F0005A0290915B029093AE028093AD02809148
:103900005C0290915D029093B0028093AF0220E040
:1039100030E0232B09F497CE0E94CB04882309F4CE
:1039200092CE0E9400008FCE1091B102C12FD0E044
:1039300080910B018130F9F410920B01812F0E94CC
:10394000F5039093900280938F020E940A04609383
:103950008B0270938C0280938D0290938E02CC0F19
:10396000DD1FFE01ED57FD4F31822082C558DD4F2E
:1039700019821882CCCFE0908F02F0909002F092E2
:103980007A02E092790280908B0290908C02A09053
:103990008D02B0908E028092750290927602A09273
:1039A0007702B0927802812F0E94F50390939002E3
:1039B00080938F020E940A042B013C0140928B02EB
:1039C00050928C0260928D0270928E0280910A0158
:1039D000813029F40E94EB1110920A0198CF0091D6
:1039E0007402009373020E94EB1180917402013003
:1039F00071F48823C1F0C090720231E0C3127DC01F
:103A0000811102C0011117C00E948E1780CF813032
:103A100039F4FE01EE0FFF1FED57FD4FF182E082FA
:103A2000002349F3E6CFFE01EE0FFF1FE558FD4FDF
:103A3000F182E082E0CF7E01EE0CFF1CEE0CFF1C59
:103A4000F701EE59FD4F80819181A281B381A301DD
:103A50009201281B390B4A0B5B0BCA01B9010E946A
:103A6000A91E9B01AC0160E070E080E89FE30E942A
:103A7000011E20915E0230915F02409160025091E0
:103A800061020E94601F0E94D31F20E030E048ECDA
:103A900052E40E94601F0E94731ECC0FDD1FCA5AA1
:103AA000DD4F79836883E701CA5BDD4F072E000C89
:103AB000880B990B0E94AB1E20E030E048EC52E4EA
:103AC0000E94011E688379838A839B8310925E0221
:103AD00010925F021092600210926102C0920B017C
:103AE000C0920A0110927202133019F4C092B2020D
:103AF0000ECF1F5F1093B1020ACF811108CF0023B0
:103B000009F405CFD0927202CC0FDD1FCC0FDD1F60
:103B1000CE59DD4F88829982AA82BB8275CF5058D8
:103B2000BB27AA270E94A71D0C94211F0E94131FC8
:103B300038F00E941A1F20F039F49F3F19F426F440
:103B40000C94101F0EF4E095E7FB0C940A1FE92F6C
:103B50000E94321F58F3BA1762077307840795074C
:103B600020F079F4A6F50C94541F0EF4E0950B2E7A
:103B7000BA2FA02D0B01B90190010C01CA01A001BF
:103B80001124FF27591B99F0593F50F4503E68F11A
:103B90001A16F040A22F232F342F4427585FF3CF5B
:103BA000469537952795A795F0405395C9F77EF42C
:103BB0001F16BA0B620B730B840BBAF09150A1F075
:103BC000FF0FBB1F661F771F881FC2F70EC0BA0FFB
:103BD000621F731F841F48F4879577956795B79583
:103BE000F7959E3F08F0B0CF9395880F08F099277E
:103BF000EE0F9795879508950E94E61E08F481E0E0
:103C000008950E94151E0C94211F0E941A1F58F03F
:103C10000E94131F40F029F45F3F29F00C940A1F03
:103C200051110C94551F0C94101F0E94321F68F301
:103C30009923B1F3552391F3951B550BBB27AA2765
:103C400062177307840738F09F5F5F4F220F331F9F
:103C5000441FAA1FA9F335D00E2E3AF0E0E832D067
:103C600091505040E695001CCAF72BD0FE2F29D06A
:103C7000660F771F881FBB1F261737074807AB073C
:103C8000B0E809F0BB0B802DBF01FF2793585F4FB1
:103C90003AF09E3F510578F00C940A1F0C94551F82
:103CA0005F3FE4F3983ED4F3869577956795B79593
:103CB000F7959F5FC9F7880F911D9695879597F99E
:103CC0000895E1E0660F771F881FBB1F6217730717
:103CD0008407BA0720F0621B730B840BBA0BEE1F2C
:103CE00088F7E09508950E947A1E6894B1110C94AB
:103CF000551F08950E943A1F88F09F5798F0B92FDA
:103D00009927B751B0F0E1F0660F771F881F991F10
:103D10001AF0BA95C9F714C0B13091F00E94541F3F
:103D2000B1E008950C94541F672F782F8827B85F4F
:103D300039F0B93FCCF3869577956795B395D9F768
:103D40003EF490958095709561957F4F8F4F9F4F72
:103D50000895E89409C097FB3EF49095809570957E
:103D600061957F4F8F4F9F4F9923A9F0F92F96E9C7
:103D7000BB279395F695879577956795B795F1113C
:103D8000F8CFFAF4BB0F11F460FF1BC06F5F7F4FD9
:103D90008F4F9F4F16C0882311F096E911C07723EB
:103DA00021F09EE8872F762F05C0662371F096E8F4
:103DB000862F70E060E02AF09A95660F771F881FC3
:103DC000DAF7880F9695879597F90895990F000867
:103DD000550FAA0BE0E8FEEF16161706E807F907DD
:103DE000C0F012161306E407F50798F0621B730B78
:103DF000840B950B39F40A2661F0232B242B252BF9
:103E000021F408950A2609F4A140A6958FEF811D9B
:103E1000811D089597F99F6780E870E060E008953C
:103E20009FEF80EC089500240A94161617061806D2
:103E30000906089500240A941216130614060506AE
:103E40000895092E0394000C11F4882352F0BB0F3F
:103E500040F4BF2B11F460FF04C06F5F7F4F8F4FA2
:103E60009F4F089557FD9058440F551F59F05F3FDD
:103E700071F04795880F97FB991F61F09F3F79F08C
:103E800087950895121613061406551FF2CF46950E
:103E9000F1DF08C0161617061806991FF1CF869590
:103EA0007105610508940895E894BB276627772774
:103EB000CB0197F908950E94E61E08F48FEF08954C
:103EC0000E94731F0C94211F0E94131F38F00E9440
:103ED0001A1F20F0952311F00C940A1F0C94101F48
:103EE00011240C94551F0E94321F70F3959FC1F34B
:103EF000950F50E0551F629FF001729FBB27F00D98
:103F0000B11D639FAA27F00DB11DAA1F649F6627EC
:103F1000B00DA11D661F829F2227B00DA11D621F3B
:103F2000739FB00DA11D621F839FA00D611D221FF5
:103F3000749F3327A00D611D231F849F600D211DD9
:103F4000822F762F6A2F11249F5750409AF0F1F05C
:103F500088234AF0EE0FFF1FBB1F661F771F881FC5
:103F600091505040A9F79E3F510580F00C940A1FD4
:103F70000C94551F5F3FE4F3983ED4F386957795F4
:103F80006795B795F795E7959F5FC1F7FE2B880F6B
:103F9000911D9695879597F9089519F416F40C9448
:103FA000101F0C9418200E943A1FB8F39923C9F3EC
:103FB000B6F39F57550B87FF0E9426200024A0E6EA
:103FC00040EA900180585695979528F4805C660FDA
:103FD000771F881F20F026173707480730F4621B29
:103FE000730B840B202931294A2BA695179407942B
:103FF000202531254A2758F7660F771F881F20F0A4
:1040000026173707480730F4620B730B840B200D1B
:10401000311D411DA09581F7B901842F9158880F5A
:104020009695879508950E94E61E880B990B089532
:104030009F3F31F0915020F4879577956795B7951C
:10404000880F911D9695879597F908959150504046
:10405000660F771F881FD2F70895A1E21A2EAA1BB8
:10406000BB1BFD010DC0AA1FBB1FEE1FFF1FA21728
:10407000B307E407F50720F0A21BB30BE40BF50B25
:10408000661F771F881F991F1A9469F760957095AE
:10409000809590959B01AC01BD01CF0108950E94D0
:1040A0005720332312F48A1B9B0B0C946820A29F89
:1040B000B001B39FC001A39F700D811D1124911DFC
:1040C000B29F700D811D1124911D08950E945720EB
:1040D000B7FF0895821B930B0895EE0FFF1F059005
:1040E000F491E02D099481E090E0F8940C9478200C
:0440F000F894FFCF72
:1040F400FFFFFFFFFFFFFFFFFFFF0101B801BB014F
:10410400BE01C301C801CD01E0FFE003FF07FFFFCB
:1041140000000000010561048E044E05BF049D04E7
:10412400B104000000008E0E6104E811E711E206FC
:10413400440B520AE9096809A9093A11480CBF0B52
:10414400B50B8608F70875083710BF0F600FEE151A
:1041540054066E616E00696E66006F7666000D0A25
:104164000041432C0044432C0049452D3036323461
:1041740000564F4C54494D4554524F204445203429
:104184002043414E414C455300560072616E676FA7
:1041940020736F706F727461646F3A205B2D3234D8
:1041A400562C203234565D004443004143005631BE
:1041B4003A200056323A200056333A200056343A18
:0241C4002000D9
:00000001FF
