:020000040000FA
:10000000000089290830831685008312850100309D
:100010008312A1006030A000A2012008FE00210888
:10002000FF000030E22483126208031920286208CE
:10003000023A03195D286208033A0319CB2885297F
:100040008312A0018312851D27288312A00A831220
:100050002008013A031D322802308312E200831285
:10006000DD013628FF308316BC00BD01003083124D
:10007000A1005D30A000A2010030A400BC30A300AC
:10008000A5010030A7005E30A600A8010130F600EF
:100090000030F7002608F8002708F9000030FA00C1
:1000A0002308FB002408FC000030FD002008FE00AF
:1000B0002108FF0000302522072883125F08031D56
:1000C0008A288312A0018312851D68288312A00A42
:1000D00083122008013A031D8A2801308312DF00B1
:1000E00000308312A1006030A000A2012008FE00B1
:1000F0002108FF00003089248312A0008316BC0071
:10010000BD018312DD01831261088312A000200A61
:100110008312E100831285198F288312DF010030DA
:100120008312A1005D30A000A2010030A400BC3009
:10013000A300A5010030A7005E30A600A801013091
:10014000F6000030F7002608F8002708F900003014
:10015000FA002308FB002408FC000030FD00200802
:10016000FE002108FF000030252283125D08013ABD
:10017000031D0728103083126102031C0728033077
:100180008312E2008312DD018312E1018830FF0057
:100190001330B824072883125E08031DDC28831659
:1001A0003E08013A031DDC283F08003A031DDC2805
:1001B000FF308316BC00BD0183125E08031DE928D1
:1001C00083163F083E04031DE92899308316BC00BE
:1001D000BD0183163E08013A031D27293F08003A56
:1001E000031D272900308312A1005D30A000A20169
:1001F0000030A400BC30A300A5010030A7005E3091
:10020000A600A8010130F6000030F7002608F8002B
:100210002708F9000030FA002308FB002408FC003E
:100220000030FD002008FE002108FF0000302522DC
:1002300083125D08013A031D6A292030FF00033054
:10024000B8248316BE01BF018312DD016A29003084
:100250008312A1005D30A000A2010030A400BC30D8
:10026000A300A5010030A7005E30A600A801013060
:10027000F6000030F7002608F8002708F9000030E3
:10028000FA002308FB002408FC000030FD002008D1
:10029000FE002108FF000030252283125D08013A8C
:1002A000031D6A292030FF000330B8240130831673
:1002B000BE00BF018312DD0183125C08803E803ED8
:1002C000031D642903305B0203186A298312DB0AC9
:1002D0000319DC0A83125B08033A031D07285C0834
:1002E000003A031D07288312A0018312851D7A2975
:1002F0008312A00A83122008013A031D07288312E3
:10030000DF0102308312E20007288312E20107288E
:1003100008005130FE000430FF0080300000000073
:10032000A9230000000083160000A1007F08A000A0
:100330005330A2000430A300831600002008A4005C
:100340002108A500FF30A007031CA10325082404F1
:100350000319212A04302207A400A501A50D2308B2
:10036000A5072408FE002508FF00803000000000DB
:10037000A9230000000083160000A7007F08A60044
:100380002208FE002308FF00803000000000A9239F
:100390000000000083160000A900A5007F08A4004B
:1003A000A80002302207A400A501A50D2308A50777
:1003B0002408FE002508FF00803000000000A9236B
:1003C0000000000083160000A500AB007F08AA0013
:1003D000A400831600002608AA002708AB00FF30FF
:1003E000A607031CA7032B082A0403191A2A2808A6
:1003F000FE002908FF008030000000009623000066
:10040000000083160000AA0024088312031384004E
:10041000831383160000251883172A0883120313F9
:10042000800083160000A80A0319A90AA40A031968
:10043000A50AE929063083160000A2070318A30ABB
:100440009C2900000000022808008312B4007F08E5
:10045000B3007E08B2007D08B7007C08B6007B08B8
:10046000B5007A08BA007908B9007808B8007708AA
:10047000BC007608BB003208FE003308FF003408D9
:1004800096238312BD003D08031DB32ABD01350824
:10049000FE003608FF003708962301390319522A57
:1004A0008312BD0A83123D0C0318582A83120510CB
:1004B000031C5C2A8312051483123508FE003608DB
:1004C000FF003708A9238312BE007F08BD00031078
:1004D0003E0CC0003D0CBF004008FD003F08FC0082
:1004E0003508FE003608FF003708872383123808D6
:1004F000FE003908FF003A0896238312B50035083C
:10050000031D862A3B08FF003C08062583123B0892
:10051000FF003C08172583123808FE003908FF0049
:100520003A0896238312B500B50A3508FD0038084D
:10053000FE003908FF003A087B2383123508083A89
:10054000031DB32A0030FD003808FE003908FF0003
:100550003A087B230130FD0083123208FE00330885
:10056000FF0034087B23080083160000AD007F08DD
:10057000AC007E08AF007D08AE000314AD1F031071
:10058000B001B00D30080319CD2A2C09B1002D0996
:10059000B200B10A0319B20AD32A831600002C084C
:1005A000B1002D08B200831600003108AC003208FB
:1005B000AD000314AF1F0310B101B10D31080319D1
:1005C000E92A2E09B2002F09B300B20A0319B30AAF
:1005D000EF2A831600002E08B2002F08B3008316FE
:1005E00000003208AE00FD003308AF00FE002C080A
:1005F000FF002D08000000001724000000008316F3
:100600000000AD007F08AC003108B00630080319C7
:10061000142B2C09B0002D09AE00B00A0319AE0A44
:100620003008FF002E08192B831600002C08FF004D
:100630002D08080083120000CE007F08CD007E0840
:10064000D0007D08CF000314CE1F0310D101D10DBF
:1006500051080319332B4D09D2004E09D300D20A99
:100660000319D30A392B831200004D08D2004E081B
:10067000D300831200005208CD005308CE000314AB
:10068000D01F0310031C4C2B4F09D2005009D3007C
:10069000D20A0319D30A522B831200004F08D2004A
:1006A0005008D300831200005208CF00FD00530809
:1006B000D000FE004D08FF004E0800000000CA23D5
:1006C0000000000083120000CE007F08CD0051081A
:1006D0000319752B4D09D1004E09CF00D10A03191A
:1006E000CF0A5108FF004F087A2B831200004D08F3
:1006F000FF004E080800003A03197F2B08007E080F
:10070000840083137F1883177D0880000800003A57
:1007100003198B2B08007E08840083137F1883172E
:100720007C088000840A7D0880000800003A0319D4
:100730009D2B803A0319A42B00347E088400831378
:100740007F188317000808007F088A007E0882004F
:100750000800003A0319B12B803A0319BB2BFF01A3
:1007600000347E08840083137F1883170008FF007D
:10077000840A0008080000000000A423FD00FE0F0A
:10078000FF03FF0A00000000A423FC007D08FF0017
:100790007C08080083120000D5007F08D4007E0882
:1007A000D7007D08D600D801D90183120000570870
:1007B0008039031D0130DA005A08031DF62B03109F
:1007C000D60DD70D57085502031DE82B56085402C5
:1007D0000318F02B031083120000D70CD60CF62B55
:1007E00083120000D90A5908D800D52B83120000C3
:1007F00057085502031DFE2B56085402031C082CF3
:10080000831200005608D4025708031C570FD50264
:10081000031083120000D70CD60C5808D900D80357
:100820005908031DF62B5408FF00550808008316CD
:100830000000B5007F08B4007E08B7007D08B60050
:10084000B801B9011030BA008316000035088039AC
:10085000031D0130BB000310B40DB50D0310B80D1E
:10086000B90D3B08031D381437083902031D3A2C13
:1008700036083802031C452C831600003608B802DF
:100880003708031C370FB9023414831600003A03EB
:10089000BB00BA003B08031D242C3408FF003508B8
:1008A0000800093400342C3405345D34003401343C
:1008B00000342D3405345E340034013400342E34D9
:1008C00005345F340034013400342F34053460348F
:1008D00000340134003430340534613400340134E0
:1008E000003428340534BE340034023400342A3451
:1008F00005345B340034023400343134053462345E
:1009000000340134003432340534633400340134AB
:1009100000348312AB007F08AA007E08A900FE0005
:100920002A08FF002B0896238312AC00A900AA0115
:100930000A30FD000030FE002908FF0000301A23B5
:100940007F088312AC00AD000A30FD000030FE00CD
:100950002908FF002A08B4228312AA007F08A900F0
:10096000AC00A900290EF039AC00AD042D08080038
:100970008312C2007F08C100C301C4018312420870
:100980004402031DC52C410843020318E12C6430C6
:100990008312C500C601FF3083124507C700FF3030
:1009A000C80046080318460FC8074708C50048088E
:1009B000C60048084704031DCB2CC30A0319C40A08
:1009C000BE2C08008312B0007F08AF007E08AE0086
:1009D000FE002F08FF00300896238312B100633A0F
:1009E000031DFB2C0030FD002E08FE002F08FF0029
:1009F00030087B23052D8312B10A3108FD002E0833
:100A0000FE002F08FF0030087B2308008312CC0073
:100A10007F08CB00FF004C08B82483120515831211
:100A20004B08FF004C08B8248312051108008312FC
:100A3000CA007F08C900FF004A08B8248312851441
:100A400083124908FF004A08B82483128510080061
:100A500001340034003400340034003400340034F5
:060A6000003400340034F4
:00000001FF
