:020000040000FA
:10000000000002287730AE000130AF0080300000E1
:100010000000E6200000000083120000CB002F0843
:10002000CA007930CC000130CD00831200004A08AC
:10003000CE004B08CF00FF30CA07031CCB034F088C
:100040004E0403199A2804304C07CE00CF01CF0D7F
:100050004D08CF074E08AE004F08AF0080300000BB
:100060000000E6200000000083120000D1002F08ED
:10007000D0004C08AE004D08AF00803000000000FA
:10008000E6200000000083120000D300CF002F08FC
:10009000CE00D20002304C07CE00CF01CF0D4D086C
:1000A000CF074E08AE004F08AF00803000000000C0
:1000B000E6200000000083120000CF00D5002F08CA
:1000C000D400CE00831200005008D4005108D5009F
:1000D000FF30D007031CD10355085404031993289B
:1000E0005208AE005308AF00803000000000072126
:1000F0000000000083120000D4004E088312031396
:1001000084008313831200004F188317540883124E
:100110000313800083120000D20A0319D30ACE0A07
:100120000319CF0A6228063083120000CC07031897
:10013000CD0A1528000000009E28080083168501BE
:1001400083128501F430C8000130C900B001B1014B
:10015000B201B3018730B400B50131083004031D8A
:10016000AD283408B600360C0318B82883120510E1
:10017000031CBC28831205140310B50CB40C00300A
:10018000B7004830B600AE003708AF00003041215C
:1001900033083204031DD0284808AF00490859210C
:1001A0004808AF0049086821B20A0319B30A3208A7
:1001B000083A031DAD283308003A031DAD28B201EB
:1001C000B3010130B000B101AD280800003A0319B5
:1001D000EE28803A0319F828AF0100342E08840075
:1001E00083132F1883170008AF00840A0008080043
:1001F000000000001521AD00AE0FAF03AF0A0000F4
:1002000000001521AC002D08AF002C080800003AB2
:1002100003190E29803A0319152900342E08840089
:1002200083132F188317000808002F088A002E0850
:1002300082000800B9002F08B800BA01BB013908D4
:100240003B02031D252938083A0203184029F430DF
:10025000BC000130BD00FF303C07BE00FF30BF00D6
:100260003D0803183D0FBF073E08BC003F08BD0016
:100270003F083E04031D2B29BA0A0319BB0A1F2994
:100280000800C5002F08C4002E08AE004408AF00C7
:100290004508E620C7002F08C600AF0047081A210E
:1002A000831285164608AF0047081A21831285126B
:1002B0000800C3002F08C200AF0043081A218312B0
:1002C00005154208AF0043081A21831205110800E2
:1002D000C1002F08C000AF0041081A218312851405
:1002E0004008AF0041081A2183128510080001342C
:1002F00000347F3401345634003401340034003487
:00000001FF
