:020000040000FA
:1000000000000228E030FE000230FF0080300000D7
:100010000000BF220000000083160000A1007F083E
:10002000A000E230A2000230A300831600002008E6
:10003000A4002108A500FF30A007031CA103250888
:10004000240403199A2804302207A400A501A50D51
:100050002308A5072408FE002508FF0080300000C3
:100060000000BF220000000083160000A7007F08E8
:10007000A6002208FE002308FF00803000000000D8
:10008000BF220000000083160000A900A5007F0821
:10009000A400A80002302207A400A501A50D230892
:1000A000A5072408FE002508FF008030000000009E
:1000B000BF220000000083160000A500AB007F08EF
:1000C000AA00A400831600002608AA002708AB0097
:1000D000FF30A607031CA7032B082A040319932843
:1000E0002808FE002908FF00803000000000AC2234
:1000F0000000000083160000AA00240883120313E6
:100100008400831383160000251883172A0883129E
:100110000313800083160000A80A0319A90AA40A81
:100120000319A50A6228063083160000A2070318E7
:10013000A30A152800000000252908008312B40036
:100140007F08B3007E08B2007D08B7007C08B600C7
:100150007B08B5007A08BA007908B9007808B800B9
:100160007708BC007608BB003208FE003308FF00A9
:100170003408AC228312BD003D08031D2429BD01B3
:100180003508FE003608FF003708AC220139031994
:10019000CB288312BD0A83123D0C0318D128831289
:1001A0000510031CD5288312051483123508FE00A0
:1001B0003608FF003708AC228312BD0003103D0C47
:1001C000FD003508FE003608FF003708A022831224
:1001D0003808FE003908FF003A08AC228312B50047
:1001E0003508031DF7283B08FF003C08D523831280
:1001F0003B08FF003C08E62383123808FE0039085C
:10020000FF003A08AC228312B500B50A3508FD009C
:100210003808FE003908FF003A08A022831235088A
:10022000083A031D24290030FD003808FE00390873
:10023000FF003A08A0220130FD0083123208FE00C0
:100240003308FF003408A022080008308316850018
:100250008312850100308312A1005D30A000A2014D
:100260002008FE002108FF000030B12383125C0843
:10027000031D59298312A0018312851D4129831270
:10028000A00A83122008013A031D59290130831264
:10029000DC008312D90100308312A1005D30A00080
:1002A000A2012008FE002108FF000030582383121D
:1002B000DB00831285195E298312DC010030831272
:1002C000A1005930A000A2010030A4005B30A300BF
:1002D0000030A6005A30A50083163C088312A70000
:1002E00083163D088312A8002708F6002808F700A7
:1002F0002508F8002608F9000030FA002308FB0062
:100300002408FC000030FD002008FE002108FF004A
:1003100000309E202A29080083160000AD007F08C7
:10032000AC007E08AF007D08AE000314AD1F0310C3
:10033000B001B00D30080319A5292C09B1002D0911
:10034000B200B10A0319B20AAB29831600002C08C7
:10035000B1002D08B200831600003108AC0032084D
:10036000AD000314AF1F0310B101B10D3108031923
:10037000C1292E09B2002F09B300B20A0319B30A2A
:10038000C729831600002E08B2002F08B300831679
:1003900000003208AE00FD003308AF00FE002C085C
:1003A000FF002D08000000001E230000000083163F
:1003B0000000AD007F08AC003108B006300803191A
:1003C000EC292C09B0002D09AE00B00A0319AE0AC1
:1003D0003008FF002E08F129831600002C08FF00CA
:1003E0002D08080083120000CB007F08CA007E0899
:1003F000CD007D08CC000314CB1F0310CE01CE0D21
:100400004E0803190B2A4A09CF004B09D000CF0A26
:100410000319D00A112A831200004A08CF004B08A2
:10042000D000831200004F08CA005008CB0003140C
:10043000CD1F0310031C242A4C09CF004D09D00006
:10044000CF0A0319D00A2A2A831200004C08CF00D1
:100450004D08D000831200004F08CC00FD0050086A
:10046000CD00FE004A08FF004B08000000005322A8
:100470000000000083120000CB007F08CA004E0875
:1004800003194D2A4A09CE004B09CC00CE0A0319A4
:10049000CC0A4E08FF004C08522A831200004A087A
:1004A000FF004B08080083120000D2007F08D10033
:1004B0007E08D4007D08D300D501D6018312000048
:1004C00054088039031D0130D7005708031D7F2AC7
:1004D0000310D30DD40D54085202031D712A530882
:1004E00051020318792A031083120000D40CD30C94
:1004F0007F2A83120000D60A5608D5005E2A83128E
:10050000000054085202031D872A53085102031C9D
:10051000912A831200005308D1025408031C540F7F
:10052000D202031083120000D40CD30C5508D6005D
:10053000D5035608031D7F2A5108FF005208080002
:10054000003A0319A42A08007E08840083137F1848
:1005500083177D0880000800003A0319B32A803A07
:100560000319BA2A00347E08840083137F18831786
:10057000000808007F088A007E0882000800003A10
:100580000319C72A803A0319D12AFF0100347E08D3
:10059000840083137F1883170008FF00840A000873
:1005A000080000000000BA22FD00FE0FFF03FF0A52
:1005B00000000000BA22FC007D08FF007C08080053
:1005C0000A340034F9340334BE34003401340034C6
:1005D000FA3403345834003401340034F73403342B
:1005E000BC34003402340034FB3403345934003456
:1005F00001340034FC3403345A3400340134003400
:10060000FD3403345B34003401340034FE340334ED
:100610005C34003401340034FF3403345D3400347E
:1006200001340034003404345E34003401340034C6
:10063000013404345F340034013400348316000084
:10064000B5007F08B4007E08B7007D08B600B80189
:10065000B9011030BA008316000035088039031D37
:100660000130BB000310B40DB50D0310B80DB90D6A
:100670003B08031D381437083902031D412B360887
:100680003802031C4C2B831600003608B8023708CA
:10069000031C370FB9023414831600003A03BB0061
:1006A000BA003B08031D2B2B3408FF003508080057
:1006B0008312AB007F08AA007E08A900FE002A086A
:1006C000FF002B08AC228312AC00A900AA010A305B
:1006D000FD000030FE002908FF000030F2217F08F5
:1006E0008312AC00AD000A30FD000030FE00290886
:1006F000FF002A088C218312AA007F08A900AC0001
:10070000A900290EF039AC00AD042D0808008312B1
:10071000BF007F08BE00C001C10183123F08410233
:10072000031D942B3E0840020318B02BC8308312DF
:10073000C200C301FF3083124207C400FF30C5006E
:1007400043080318430FC5074408C2004508C30007
:1007500045084404031D9A2BC00A0319C10A8D2BB6
:1007600008008312B0007F08AF007E08AE00FE00D4
:100770002F08FF003008AC228312B100633A031D3A
:10078000CA2B0030FD002E08FE002F08FF003008A5
:10079000A022D42B8312B10A3108FD002E08FE00DE
:1007A0002F08FF003008A02208008312C9007F082C
:1007B000C800FF00490887238312051583124808E3
:1007C000FF00490887238312051108008312C70020
:1007D0007F08C600FF004708872383128514831211
:1007E0004608FF004708872383128510080001345C
:1007F00000340034003401340034FF340034003459
:04080000003400348C
:00000001FF
