:020000040000FA
:10000000000002287630FE000330FF008030000040
:100010000000CF220000000083160000A1007F082E
:10002000A0007830A2000330A3008316000020084F
:10003000A4002108A500FF30A007031CA103250888
:10004000240403199A2804302207A400A501A50D51
:100050002308A5072408FE002508FF0080300000C3
:100060000000CF220000000083160000A7007F08D8
:10007000A6002208FE002308FF00803000000000D8
:10008000CF220000000083160000A900A5007F0811
:10009000A400A80002302207A400A501A50D230892
:1000A000A5072408FE002508FF008030000000009E
:1000B000CF220000000083160000A500AB007F08DF
:1000C000AA00A400831600002608AA002708AB0097
:1000D000FF30A607031CA7032B082A040319932843
:1000E0002808FE002908FF00803000000000BC2224
:1000F0000000000083160000AA00240883120313E6
:100100008400831383160000251883172A0883129E
:100110000313800083160000A80A0319A90AA40A81
:100120000319A50A6228063083160000A2070318E7
:10013000A30A1528000000009E2808000830831636
:100140008500831285018312C2018312C301FF302F
:100150008312C4008312A001A10183122108633A13
:10016000031DB428A101B6288312A10A8312200816
:10017000031DF128A2018312851DC0288312A20A43
:1001800083122208013A031DF1280130A0008312D6
:10019000C2018312A3010A30FD000030FE002108D5
:1001A000A200FF00003002228312A5007F08A400F5
:1001B000A6000A30FD000030FE002208FF002308E0
:1001C0009C218312A3007F08A200A400A200220E9B
:1001D000F039A4008312C400831226082404831279
:1001E000C40083128519F6288312A00183124208E5
:1001F000031DAD2800308312A4004230A200A501E7
:100200000030A7004430A6000030A9004330A80009
:100210000130F6000030F7002808F8002908F9003E
:100220000030FA002608FB002708FC000030FD0023
:100230002208FE002408FF0000302021AD2808001D
:100240008312AC007F08AB007E08AA007D08AF00D7
:100250007C08AE007B08AD007A08B2007908B100D6
:100260007808B0007708B4007608B300B5012D080F
:10027000FE002E08FF002F08BC2201390319422975
:100280008312B50A8312350C03184829831205100E
:10029000031C4C298312051483122D08FE002E081E
:1002A000FF002F08BC228312B5000310350CFD009F
:1002B0002D08FE002E08FF002F08B0228312300800
:1002C000FE003108FF003208BC228312AD002D0869
:1002D000031D6E293308FF003408542383123308AA
:1002E000FF003408652383123008FE003108FF0048
:1002F0003208BC228312AD00AD0A2D08FD00300883
:10030000FE003108FF003208B02283122D08083A9F
:10031000031D9B290030FD003008FE003108FF005E
:100320003208B0220130FD0083122A08FE002B089B
:10033000FF002C08B022080083160000AD007F08E3
:10034000AC007E08AF007D08AE000314AD1F0310A3
:10035000B001B00D30080319B5292C09B1002D09E1
:10036000B200B10A0319B20ABB29831600002C0897
:10037000B1002D08B200831600003108AC0032082D
:10038000AD000314AF1F0310B101B10D3108031903
:10039000D1292E09B2002F09B300B20A0319B30AFA
:1003A000D729831600002E08B2002F08B300831649
:1003B00000003208AE00FD003308AF00FE002C083C
:1003C000FF002D0800000000F0220000000083164E
:1003D0000000AD007F08AC003108B00630080319FA
:1003E000FC292C09B0002D09AE00B00A0319AE0A91
:1003F0003008FF002E08012A831600002C08FF0099
:100400002D08080083120000C6007F08C5007E0882
:10041000C8007D08C7000314C61F0310C901C90D19
:10042000490803191B2A4509CA004609CB00CA0A14
:100430000319CB0A212A831200004508CA00460886
:10044000CB00831200004A08C5004B08C600031405
:10045000C81F0310031C342A4709CA004809CB00EF
:10046000CA0A0319CB0A3A2A831200004708CA00B5
:100470004808CB00831200004A08C700FD004B0863
:10048000C800FE004508FF00460800000000632287
:100490000000000083120000C6007F08C500490864
:1004A00003195D2A4509C9004609C700C90A03198D
:1004B000C70A4908FF004708622A8312000045085E
:1004C000FF004608080083120000CD007F08CC0022
:1004D0007E08CF007D08CE00D001D101831200003C
:1004E0004F088039031D0130D2005208031D8F2AA6
:1004F0000310CE0DCF0D4F084D02031D812A4E086B
:100500004C020318892A031083120000CF0CCE0C72
:100510008F2A83120000D10A5108D0006E2A83125C
:1005200000004F084D02031D972A4E084C02031C81
:10053000A12A831200004E08CC024F08031C4F0F63
:10054000CD02031083120000CF0CCE0C5008D10056
:10055000D0035108031D8F2A4C08FF004D080800E6
:10056000003A0319B42A08007E08840083137F1818
:1005700083177D0880000800003A0319C32A803AD7
:100580000319CA2A00347E08840083137F18831756
:10059000000808007F088A007E0882000800003AF0
:1005A0000319D72A803A0319E12AFF0100347E0893
:1005B000840083137F1883170008FF00840A000853
:1005C000080000000000CA22FD00FE0FFF03FF0A22
:1005D00000000000CA22FC007D08FF007C08080023
:1005E00083160000B5007F08B4007E08B7007D08C0
:1005F000B600B801B9011030BA0083160000350802
:100600008039031D0130BB000310B40DB50D03107C
:10061000B80DB90D3B08031D381437083902031D06
:10062000132B36083802031C1E2B831600003608D5
:10063000B8023708031C370FB902341483160000C0
:100640003A03BB00BA003B08031DFD2A3408FF0033
:10065000350808008312B7007F08B600B801B90159
:10066000831237083902031D372B36083802031866
:10067000532BC8308312BA00BB01FF3083123A07F4
:10068000BC00FF30BD003B0803183B0FBD073C0812
:10069000BA003D08BB003D083C04031D3D2BB80AD1
:1006A0000319B90A302B08008312C1007F08C0006B
:1006B000FF0041082A238312051583124008FF001A
:1006C00041082A238312051108008312BF007F0806
:1006D000BE00FF003F082A238312851483123E08C0
:1006E000FF003F082A2383128510080001340034DC
:0E06F0007E340334BC34003401340034003452
:00000001FF
